{
  "_format": "hh-sol-artifact-1",
  "contractName": "Voting",
  "sourceName": "contracts/Voting.sol",
  "abi": [
    {
      "anonymous": false,
      "inputs": [
        {
          "indexed": false,
          "internalType": "string",
          "name": "email",
          "type": "string"
        },
        {
          "indexed": true,
          "internalType": "address",
          "name": "user",
          "type": "address"
        }
      ],
      "name": "Registered",
      "type": "event"
    },
    {
      "anonymous": false,
      "inputs": [
        {
          "indexed": true,
          "internalType": "address",
          "name": "voter",
          "type": "address"
        },
        {
          "indexed": false,
          "internalType": "string",
          "name": "email",
          "type": "string"
        },
        {
          "indexed": false,
          "internalType": "uint256",
          "name": "pollId",
          "type": "uint256"
        },
        {
          "indexed": false,
          "internalType": "string",
          "name": "option",
          "type": "string"
        }
      ],
      "name": "Voted",
      "type": "event"
    },
    {
      "inputs": [
        {
          "internalType": "string",
          "name": "email",
          "type": "string"
        }
      ],
      "name": "getAddressByEmail",
      "outputs": [
        {
          "internalType": "address",
          "name": "",
          "type": "address"
        }
      ],
      "stateMutability": "view",
      "type": "function"
    },
    {
      "inputs": [
        {
          "internalType": "string",
          "name": "email",
          "type": "string"
        },
        {
          "internalType": "uint256",
          "name": "pollId",
          "type": "uint256"
        }
      ],
      "name": "getVote",
      "outputs": [
        {
          "internalType": "string",
          "name": "",
          "type": "string"
        }
      ],
      "stateMutability": "view",
      "type": "function"
    },
    {
      "inputs": [
        {
          "internalType": "string",
          "name": "email",
          "type": "string"
        }
      ],
      "name": "register",
      "outputs": [],
      "stateMutability": "nonpayable",
      "type": "function"
    },
    {
      "inputs": [
        {
          "internalType": "string",
          "name": "email",
          "type": "string"
        },
        {
          "internalType": "uint256",
          "name": "pollId",
          "type": "uint256"
        },
        {
          "internalType": "string",
          "name": "option",
          "type": "string"
        }
      ],
      "name": "vote",
      "outputs": [],
      "stateMutability": "nonpayable",
      "type": "function"
    }
  ],
  "bytecode": "0x6080604052348015600f57600080fd5b506110ba8061001f6000396000f3fe608060405234801561001057600080fd5b506004361061004c5760003560e01c8063c5caea0114610051578063d47ec96914610081578063d8a1de071461009d578063f2c298be146100cd575b600080fd5b61006b600480360381019061006691906107eb565b6100e9565b6040516100789190610875565b60405180910390f35b61009b600480360381019061009691906108c6565b610150565b005b6100b760048036038101906100b29190610951565b610324565b6040516100c49190610a2c565b60405180910390f35b6100e760048036038101906100e291906107eb565b61045a565b005b600080826040516020016100fd9190610a8a565b60405160208183030381529060405280519060200120905060008082815260200190815260200160002060009054906101000a900473ffffffffffffffffffffffffffffffffffffffff16915050919050565b6000836040516020016101639190610a8a565b6040516020818303038152906040528051906020012090503373ffffffffffffffffffffffffffffffffffffffff1660008083815260200190815260200160002060009054906101000a900473ffffffffffffffffffffffffffffffffffffffff1673ffffffffffffffffffffffffffffffffffffffff161461021b576040517f08c379a000000000000000000000000000000000000000000000000000000000815260040161021290610b13565b60405180910390fd5b60008484604051602001610230929190610b54565b604051602081830303815290604052805190602001209050600060026000838152602001908152602001600020805461026890610bab565b9050146102aa576040517f08c379a00000000000000000000000000000000000000000000000000000000081526004016102a190610c28565b60405180910390fd5b826002600083815260200190815260200160002090816102ca9190610df4565b503373ffffffffffffffffffffffffffffffffffffffff167f8fec996a99415f4460925e711718f72d5d42b30f7e88b370028c08deec1ba06286868660405161031593929190610ed5565b60405180910390a25050505050565b60606000838360405160200161033b929190610b54565b604051602081830303815290604052805190602001209050600060026000838152602001908152602001600020805461037390610bab565b9050036103b5576040517f08c379a00000000000000000000000000000000000000000000000000000000081526004016103ac90610f66565b60405180910390fd5b6002600082815260200190815260200160002080546103d390610bab565b80601f01602080910402602001604051908101604052809291908181526020018280546103ff90610bab565b801561044c5780601f106104215761010080835404028352916020019161044c565b820191906000526020600020905b81548152906001019060200180831161042f57829003601f168201915b505050505091505092915050565b60008160405160200161046d9190610a8a565b604051602081830303815290604052805190602001209050600073ffffffffffffffffffffffffffffffffffffffff1660008083815260200190815260200160002060009054906101000a900473ffffffffffffffffffffffffffffffffffffffff1673ffffffffffffffffffffffffffffffffffffffff1614610526576040517f08c379a000000000000000000000000000000000000000000000000000000000815260040161051d90610fd2565b60405180910390fd5b6000801b600160003373ffffffffffffffffffffffffffffffffffffffff1673ffffffffffffffffffffffffffffffffffffffff16815260200190815260200160002054146105aa576040517f08c379a00000000000000000000000000000000000000000000000000000000081526004016105a190611064565b60405180910390fd5b3360008083815260200190815260200160002060006101000a81548173ffffffffffffffffffffffffffffffffffffffff021916908373ffffffffffffffffffffffffffffffffffffffff16021790555080600160003373ffffffffffffffffffffffffffffffffffffffff1673ffffffffffffffffffffffffffffffffffffffff168152602001908152602001600020819055503373ffffffffffffffffffffffffffffffffffffffff167f50f74ca45caac8020b8d891bd13ea5a2d79564986ee6a839f0d914896388322d836040516106859190610a2c565b60405180910390a25050565b6000604051905090565b600080fd5b600080fd5b600080fd5b600080fd5b6000601f19601f8301169050919050565b7f4e487b7100000000000000000000000000000000000000000000000000000000600052604160045260246000fd5b6106f8826106af565b810181811067ffffffffffffffff82111715610717576107166106c0565b5b80604052505050565b600061072a610691565b905061073682826106ef565b919050565b600067ffffffffffffffff821115610756576107556106c0565b5b61075f826106af565b9050602081019050919050565b82818337600083830152505050565b600061078e6107898461073b565b610720565b9050828152602081018484840111156107aa576107a96106aa565b5b6107b584828561076c565b509392505050565b600082601f8301126107d2576107d16106a5565b5b81356107e284826020860161077b565b91505092915050565b6000602082840312156108015761080061069b565b5b600082013567ffffffffffffffff81111561081f5761081e6106a0565b5b61082b848285016107bd565b91505092915050565b600073ffffffffffffffffffffffffffffffffffffffff82169050919050565b600061085f82610834565b9050919050565b61086f81610854565b82525050565b600060208201905061088a6000830184610866565b92915050565b6000819050919050565b6108a381610890565b81146108ae57600080fd5b50565b6000813590506108c08161089a565b92915050565b6000806000606084860312156108df576108de61069b565b5b600084013567ffffffffffffffff8111156108fd576108fc6106a0565b5b610909868287016107bd565b935050602061091a868287016108b1565b925050604084013567ffffffffffffffff81111561093b5761093a6106a0565b5b610947868287016107bd565b9150509250925092565b600080604083850312156109685761096761069b565b5b600083013567ffffffffffffffff811115610986576109856106a0565b5b610992858286016107bd565b92505060206109a3858286016108b1565b9150509250929050565b600081519050919050565b600082825260208201905092915050565b60005b838110156109e75780820151818401526020810190506109cc565b60008484015250505050565b60006109fe826109ad565b610a0881856109b8565b9350610a188185602086016109c9565b610a21816106af565b840191505092915050565b60006020820190508181036000830152610a4681846109f3565b905092915050565b600081905092915050565b6000610a64826109ad565b610a6e8185610a4e565b9350610a7e8185602086016109c9565b80840191505092915050565b6000610a968284610a59565b915081905092915050565b7f556e617574686f72697a65643a2077616c6c657420646f6573206e6f74206d6160008201527f74636820656d61696c0000000000000000000000000000000000000000000000602082015250565b6000610afd6029836109b8565b9150610b0882610aa1565b604082019050919050565b60006020820190508181036000830152610b2c81610af0565b9050919050565b6000819050919050565b610b4e610b4982610890565b610b33565b82525050565b6000610b608285610a59565b9150610b6c8284610b3d565b6020820191508190509392505050565b7f4e487b7100000000000000000000000000000000000000000000000000000000600052602260045260246000fd5b60006002820490506001821680610bc357607f821691505b602082108103610bd657610bd5610b7c565b5b50919050565b7f416c726561647920766f74656400000000000000000000000000000000000000600082015250565b6000610c12600d836109b8565b9150610c1d82610bdc565b602082019050919050565b60006020820190508181036000830152610c4181610c05565b9050919050565b60008190508160005260206000209050919050565b60006020601f8301049050919050565b600082821b905092915050565b600060088302610caa7fffffffffffffffffffffffffffffffffffffffffffffffffffffffffffffffff82610c6d565b610cb48683610c6d565b95508019841693508086168417925050509392505050565b6000819050919050565b6000610cf1610cec610ce784610890565b610ccc565b610890565b9050919050565b6000819050919050565b610d0b83610cd6565b610d1f610d1782610cf8565b848454610c7a565b825550505050565b600090565b610d34610d27565b610d3f818484610d02565b505050565b5b81811015610d6357610d58600082610d2c565b600181019050610d45565b5050565b601f821115610da857610d7981610c48565b610d8284610c5d565b81016020851015610d91578190505b610da5610d9d85610c5d565b830182610d44565b50505b505050565b600082821c905092915050565b6000610dcb60001984600802610dad565b1980831691505092915050565b6000610de48383610dba565b9150826002028217905092915050565b610dfd826109ad565b67ffffffffffffffff811115610e1657610e156106c0565b5b610e208254610bab565b610e2b828285610d67565b600060209050601f831160018114610e5e5760008415610e4c578287015190505b610e568582610dd8565b865550610ebe565b601f198416610e6c86610c48565b60005b82811015610e9457848901518255600182019150602085019450602081019050610e6f565b86831015610eb15784890151610ead601f891682610dba565b8355505b6001600288020188555050505b505050505050565b610ecf81610890565b82525050565b60006060820190508181036000830152610eef81866109f3565b9050610efe6020830185610ec6565b8181036040830152610f1081846109f3565b9050949350505050565b7f4e6f20766f7465207265636f7264656400000000000000000000000000000000600082015250565b6000610f506010836109b8565b9150610f5b82610f1a565b602082019050919050565b60006020820190508181036000830152610f7f81610f43565b9050919050565b7f456d61696c20616c726561647920726567697374657265640000000000000000600082015250565b6000610fbc6018836109b8565b9150610fc782610f86565b602082019050919050565b60006020820190508181036000830152610feb81610faf565b9050919050565b7f4164647265737320616c7265616479206c696e6b656420746f20616e6f74686560008201527f7220656d61696c00000000000000000000000000000000000000000000000000602082015250565b600061104e6027836109b8565b915061105982610ff2565b604082019050919050565b6000602082019050818103600083015261107d81611041565b905091905056fea264697066735822122028378a78926bd367df5c0bf4c331bfe5034416a1a5276b00bef95f43ccdd0b7464736f6c634300081c0033",
  "linkReferences": {},
  "deployedLinkReferences": {}
}